:020000040800F2
:1000000010090020CD0100087F110008AD10000884
:100010007D110008D30200089D14000800000000B4
:100020000000000000000000000000008311000834
:10003000D5020008000000008111000885110008A9
:10004000E7010008E7010008E7010008E7010008F0
:10005000E7010008E7010008E7010008E7010008E0
:10006000E7010008E7010008E7010008E7010008D0
:10007000E7010008E7010008E7010008E7010008C0
:10008000E7010008E7010008E7010008E7010008B0
:10009000E7010008E7010008E7010008E7010008A0
:1000A000E7010008E7010008E7010008E701000890
:1000B000E7010008E7010008E9110008E70100086E
:1000C000E7010008E7010008E7010008E701000870
:1000D000E701000875140008E7010008E7010008BF
:1000E000E7010008E7010008E7010008E701000850
:1000F000E7010008E7010008E7010008E701000840
:10010000E7010008E7010008E7010008E70100082F
:10011000E7010008E7010008E7010008E70100081F
:10012000E7010008E7010008E7010008E70100080F
:1001300000F002F800F03AF80AA090E8000C8244BF
:100140008344AAF10107DA4501D100F02FF8AFF29C
:10015000090EBAE80F0013F0010F18BFFB1A43F0A5
:10016000010318476415000084150000103A24BFED
:1001700078C878C1FAD8520724BF30C830C144BF0C
:1001800004680C607047000000230024002500264E
:10019000103A28BF78C1FBD8520728BF30C148BFEA
:1001A0000B6070471FB51FBD10B510BD00F058F8AB
:1001B0001146FFF7F7FF01F0D9F900F076F803B424
:1001C000FFF7F2FF03BC00F07DF80000094880470C
:1001D00009480047FEE7FEE7FEE7FEE7FEE7FEE729
:1001E000FEE7FEE7FEE7FEE704480549054A064B41
:1001F00070470000E71100083101000810030020DB
:100200001009002010050020100500204FF000020A
:1002100000B5134694469646203922BFA0E80C50FC
:10022000A0E80C50B1F12001BFF4F7AF090728BFD7
:10023000A0E80C5048BF0CC05DF804EB890028BF53
:1002400040F8042B08BF704748BF20F8022B11F07C
:10025000804F18BF00F8012B7047704770477047F8
:10026000754600F02BF8AE4605006946534620F06F
:100270000700854618B020B5FFF7B6FFBDE820405F
:100280004FF000064FF000074FF000084FF0000B52
:1002900021F00701AC46ACE8C009ACE8C009ACE805
:1002A000C009ACE8C0098D46704710B50446AFF3ED
:1002B00000802046BDE81040FFF781BF004870472E
:1002C000AC02002001491820ABBEFEE72600020068
:1002D0007047FEE7704772B6FEE7000070B504464F
:1002E00000F00AF90546601C02D004480078044476
:1002F00000F002F9401BA042FAD370BD00000020BC
:100300002DE9F84FDFF8C8910024A9F1040B23462A
:100310000F2709F1040AABF1040ED1E00125A54035
:1003200006EA0502AA4276D1DFF8A8C14E68A6EB1C
:100330000C0866452BD00DDC032E34D005DC36B31B
:10034000012E19D0022E2FD11BE0112E16D0122E05
:100350002AD119E0B8F5881F19D006DCB8F5803F1E
:1003600015D0B8F5801F1FD111E0B8F5001F0ED0D1
:10037000B8F5041F18D10AE0CB6815E0CB681B1D47
:1003800012E0CB6808330FE0CB680C330CE08B68CD
:100390002BB1012B4FF0080303D0456104E0042387
:1003A00002E0056100E00023FF2A01D8064601E0D3
:1003B00000F104064FEA840501D9A5F12005D6F81D
:1003C000008007FA05FC28EA0C0803FA05F548EA5C
:1003D0000508C6F800804D68ED0070D53E4DAE6949
:1003E00046F00106AE61AD6924F0030605F0010593
:1003F00000953A4D06EB050CDCF80850A607360FC1
:1004000007FA06F825EA0805DFF8D480404503D14D
:100410004FF0000825E052E0DFF8C880404502D1E7
:100420004FF001081DE0DFF8C080404502D14FF0D9
:10043000020816E0DFF8B480404502D14FF003080F
:100440000FE0DFF8AC80404502D14FF0040808E02F
:10045000DFF8A080404502D14FF0050801E04FF0E1
:10046000060808FA06F848EA0508CCF808804D683E
:10047000D9F80060ED024D4601D5164300E09643E1
:100480002E604D68DAF80060AD02554601D516437E
:1004900000E096432E604D68DBF80060AD035D46DA
:1004A00001D5164300E096432E604D68DEF80060EB
:1004B000ED03754601D5164300E096432E60641C9B
:1004C0000A681646E2407FF429AFBDE8F88F0000C5
:1004D000080401400000111000100240000001401B
:1004E00000080140000C01400010014000140140D0
:1004F00000180140001C014001488068704700005E
:100500000000002002488168027811448160704731
:1005100000000020074810B5016841F0100101609B
:10052000032000F075F80F2000F006F800F024F822
:10053000002010BD0020024070B50D4D04464FF460
:100540007A712878B1FBF0F00A490968B1FBF0F044
:1005500000F0DCFA48B9102C07D200222146501EC8
:1005600000F036F800206C6070BD012070BD000006
:10057000000000200C0000200C4808B5816941F003
:1005800001018161816901F001010091C16941F0BE
:100590008051C161C06900F08050009004484168FA
:1005A00021F0E06141F00071416008BD001002409F
:1005B00000000140002809DB00F01F0201219140EA
:1005C0004009800000F1E020C0F8001170470000F1
:1005D000F0B40E4B1B680C46C3F30223C3F10705AE
:1005E000042D00D90425191D072901D2002300E09C
:1005F000DB1E012606FA05F1491E214099409E4066
:10060000761E16403143F0BC00F049BF0CED00E00F
:10061000064900F0070208684FF6FF03184040EA59
:100620000220034A10430860704700000CED00E010
:100630000000FA052DE9F0470F46050061D0434E52
:10064000306800F00700B84209D2306820F0070097
:1006500038433060306800F00700B84251D1286854
:100660003B4C810712D5400703D5606840F4E06039
:1006700060602878000703D5606840F460506060CF
:100680006068A96820F0F000084360602878C0071F
:1006900028D06868012810D02168022810D0890766
:1006A00000292EDA616821F0030101436160FFF740
:1006B00023FF804641F288390DE021688903EFE786
:1006C0008901EDE7FFF718FFA0EB0801494502D9C2
:1006D0000320BDE8F0876068696800F00C00B0EBAB
:1006E000810FEFD1306800F00700B8420BD93068B5
:1006F00020F0070038433060306800F00700B8424F
:1007000001D00120E5E72878400705D56068E96851
:1007100020F4E060084360602878000706D5606830
:10072000296920F4605040EAC100606000F038F8A8
:100730006168084AC1F30311515CC840064908606A
:1007400006480068FFF7F8FE0020C2E700200240DC
:1007500000100240AE1600080C000020040000202B
:100760000448054900684968044AC1F30221515C04
:10077000C84070470C00002000100240BE16000860
:100780000448054900684968044AC1F3C221515C24
:10079000C84070470C00002000100240BE16000840
:1007A0000E4A51680E4801F00C03042B11D0082B9F
:1007B0000FD10C48C1F38343C903C05C0AD551680B
:1007C000084AC1F34041921E515C054A5043B0FBB8
:1007D000F1F07047044948437047000000100240A0
:1007E00000127A009E16000800093D002DE9F84F1E
:1007F000040070D02078C04DC00749D06868C0F3AD
:100800008100012807D06868C0F38100022809D15F
:100810006868C00306D52868800339D56068002859
:10082000E7D035E06068B0F5803F0BD010B1B0F58F
:10083000A02F11D0286820F480302860286820F488
:10084000802002E0286840F480302860606890B121
:10085000FFF752FE06460AE0286840F48020286030
:10086000F0E700BFFFF748FE801B642873D82868B4
:100870008003F7D50CE0FFF73FFE064605E000BF1A
:10088000FFF73AFE801B6428F0D828688003F7D46D
:1008900020789A4E80074FF001094FF0000839D5B3
:1008A000686810F00C0F07D06868C0F38100022858
:1008B00009D16868C00306D42868800714D5206968
:1008C000012808D110E02069B0B1C6F80090FFF708
:1008D00013FE074605E00AE1FFF70EFEC01B0228E3
:1008E000C4D828688007F7D52868616920F0F80027
:1008F00040EAC10028600DE0C6F80080FFF7FCFD6B
:10090000074604E0FFF7F8FDC01B022823D828683B
:100910008007F7D4207800072CD57948A169D9B190
:10092000C0F80090FFF7E8FD074604E0FFF7E4FD9C
:10093000C01B02280FD8686A8007F7D571484FF4AA
:10094000FA510068B0FBF1F0009000BF0098411E22
:100950000091FAD20EE080E0C0F80080FFF7CCFDF5
:10096000074604E0FFF7C8FDC01B022875D8686A77
:100970008007F7D42078400760D5E8690027C000D9
:1009800008D4E86940F08050E861E869012700F088
:10099000805000905C480168C90513D40168834603
:1009A00041F480710160FFF7A7FD824606E000BFB9
:1009B000FFF7A2FDA0EB0A0064284ED8DBF8000088
:1009C000C005F5D5E06801280AD008B1052813D084
:1009D000286A20F001002862286A20F0040002E062
:1009E000286A40F001002862E06841F2883B98B133
:1009F000FFF782FD82460BE0286A40F0040028627F
:100A0000EEE700BFFFF778FDA0EB0A0159455AD881
:100A1000286A8007F6D50CE0FFF76EFD824605E0F8
:100A2000FFF76AFDA0EB0A0159454CD8286A8007F8
:100A3000F6D41FB1E86920F08050E861E06988B31E
:100A40006968C1F38101022944D00228C6F8608098
:100A500004D0FFF751FD044638E034E0FFF74CFDC9
:100A6000074604E0FFF748FDC01B02282BD8286882
:100A70008001F7D4206AB0F5803F05D16868A1688D
:100A800020F4003008436860D4E90801084369682D
:100A900021F4741108436860C6F86090FFF72CFDDC
:100AA000044606E025E000BFFFF726FD001B0228F4
:100AB00009D828688001F7D51BE000BFFFF71CFDAF
:100AC000001B022802D90320BDE8F88F28688001A6
:100AD000F4D40EE00128F7D06868226A00F480316F
:100AE000914204D1616A00F47010884201D0012063
:100AF000EAE70020E8E70000001002400000424260
:100B0000800442420C0000200070004010B5401EDE
:100B1000B0F1807F01D3012010BD4FF0E02460616F
:100B20000F21601700F0BBFC0020A06107202061AE
:100B3000002010BD7047704770B590F83C20012A26
:100B40002CD0012480F83C40022280F83D2003682C
:100B50005A689D6822F070060A6832435A60104B4A
:100B600002689A420ED00F4B9A420BD0B2F1804FDE
:100B700008D00D4B9A4205D00C4B9A4202D00C4B38
:100B80009A4204D1496825F080031943916080F8A6
:100B90003D40002180F83C10084670BD022070BD29
:100BA000002C0140003401400004004000080040D7
:100BB000000C004010B5040003D094F83D0010B1C3
:100BC00007E0012010BD002084F83C00204600F022
:100BD0001FF8022084F83D00211D206800F00AFB68
:100BE000012084F8460084F83E0084F83F0084F831
:100BF000400084F8410084F8420084F8430084F8FF
:100C0000440084F8450084F83D00002010BD000039
:100C100008B500680B49884212D10B48C16941F000
:100C20000401C161C069002200F004000090114677
:100C30001E20FFF7CDFCBDE808401E20FFF7BABC20
:100C400008BD0000000800400010024070B50446D6
:100C500090F83C000025012817D0012684F83C605C
:100C6000022084F83D002068826822F0770222F496
:100C70007F4282600868502838D00DDC20284FD091
:100C800005DC90B3102811D14AE0022070BD302855
:100C900046D040280AD13BE060282FD070280DD0E4
:100CA000B0F5805F03D0B0F5005F12D0012584F865
:100CB0003D60002084F83C00284670BDCB68D1E937
:100CC0000121206800F0E4FA2068816841F0770192
:100CD00009E0CB68D1E90121206800F0D9FA206849
:100CE000816841F480418160E1E719E0CA684968A0
:100CF000206800F0DFFA5021206806E0CA684968E1
:100D0000206800F0E8FA6021206800F0CBFACEE716
:100D1000CA684968206800F0CDFA40212068F4E7ED
:100D2000226801461046F0E770472DE9F04104467D
:100D30000068C66805694FF00007A90713D5B10719
:100D400011D5F91E01610120207720688069800794
:100D5000204602D0FFF7E8FF04E000F07EF82046CE
:100D600000F07CF82777680716D5700714D521683E
:100D70006FF004000861022020772068806910F479
:100D8000407F204602D0FFF7CFFF04E000F065F877
:100D9000204600F063F82777280715D5300713D5CC
:100DA00021686FF008000861042020772068C0697E
:100DB0008007204602D0FFF7B7FF04E000F04DF8AF
:100DC000204600F04BF82777E80616D5F00614D534
:100DD00021686FF010000861082020772068C06942
:100DE00010F4407F204602D0FFF79EFF04E000F0A1
:100DF00034F8204600F032F82777E80708D0F007EB
:100E000006D021686FF001000861204600F028F844
:100E1000280608D5300606D521686FF080000861E5
:100E20002046FFF787FE680608D5700606D52168BC
:100E30006FF040000861204600F01CF8A8060AD5B3
:100E4000B00608D521686FF0200008612046BDE893
:100E5000F041FFF770BEBDE8F081704770470000B9
:100E600000680349884201D100F014BC70470000BB
:100E700000080040704770B5040004D094F84100A9
:100E8000002510B106E0012070BD84F840502046D6
:100E900000F024F8242084F841002068C16821F47F
:100EA0000051C160204600F04FFA2068016921F42A
:100EB000904101612068416921F02A014161206867
:100EC000C16841F40051C1606564202084F841008C
:100ED00084F842006563002070BD000030B585B025
:100EE00000240094019402940394006818498842F5
:100EF0002CD11848816941F480418161816901F4F4
:100F000080410491816941F0040181618069124D41
:100F100000F0040004904FF4007000900220019053
:100F20000320039069462846FFF7EAF92815CDE922
:100F30000004694628460294FFF7E2F900221146B0
:100F40002520FFF745FB2520FFF734FB05B030BD1A
:100F50000038014000100240000801402DE9F84F20
:100F6000044690F842009A4616460D46202802D0C4
:100F70000220BDE8F88FB5B1AEB100206064222137
:100F800084F842102063FFF7B7FAA6858146E6850C
:100F9000A0684FF480582027404501D1206920B136
:100FA0002E46002529E00120E3E7002625E04B46F8
:100FB000002220212046CDF800A000F021FA18B12F
:100FC00084F842700320D4E726B1A06840451AD0C7
:100FD00038B108E020684068C0F3080025F8020B2B
:100FE00008E0206978B12068406800F07F0000BF09
:100FF00006F8010BE08D401EE085E08D0028D6D17B
:1010000084F84270B5E720684068F1E72DE9F843BD
:10101000044690F84100984616460D46202802D016
:101020000220BDE8F88385B17EB1002060642120F4
:1010300084F84100FFF760FAA6848146E684A06840
:101040002027B0F5805F02D003E00120E9E72069A6
:1010500010B12E4600250EE000260CE0802120462F
:1010600000F0CEF9A8B9C6B116F8010B21684860A6
:10107000E08C401EE084E08C4B464FF00002CDF83F
:1010800000800028EAD14FF04001204600F0B8F976
:1010900040B184F841700320C3E735F8020BC0F378
:1010A0000800E3E784F841700020BAE7FEE700009B
:1010B000094808B5816941F010018161816901F039
:1010C00010010091816941F004018161806900F0A3
:1010D0000400009008BD00000010024010B586B06A
:1010E0000024174800940194029403940494134933
:1010F0000594016040F60F61C0E901142321C0E9A5
:1011000003148461FFF756FD08B1FFF7E4F84FF4CC
:101110008050009069460A48FFF798FD08B1FFF734
:10112000DAF8049404A906480594FFF705FD0028A1
:1011300001D0FFF7D0F806B010BD00000008004055
:101140001C0000200C4810B50A4901604FF4E13141
:101150004160002181600C22C160C0E904128161FC
:10116000C161FFF788FE002803D0BDE81040FFF7FB
:10117000B2B810BD0038014064000020FEE7FEE771
:1011800070477047FFF7BEB930B58FB02821684669
:10119000FFF73CF814210AA8FFF738F801210804EA
:1011A000CDE900100024029402250491CDE90750F6
:1011B0004FF4E01009906846FFF718FB08B172B6CB
:1011C000FEE70F20CDE90A054FF48060CDE90C4021
:1011D00002210AA80E94FFF72DFA002801D072B65A
:1011E000FEE70FB030BD70470148FFF79EBD00001D
:1011F0001C000020F0B50268204C214D214E224FEA
:10120000224B4FF0804CA04209D0984207D0604555
:1012100005D0A84203D0B04201D0B84204D122F098
:10122000700E4A6842EA0E02A04209D0984207D0E6
:10123000604505D0A84203D0B04201D0B84203D1E6
:1012400022F44075CA682A434D6922F080022A437D
:1012500002608A68C2620A688262A04201D0984233
:1012600001D109690163012141610169C90703D005
:10127000016921F001010161F0BD0000002C014075
:101280000004004000080040000C00400034014011
:1012900010B5846842EA032224F47F440A432243BF
:1012A000826010BD826822F070020A4342F007019A
:1012B0008160704710B5036A046A24F00104046277
:1012C000846924F0F00444EA021423F00A020A4379
:1012D0008461026210BD10B5036A046A24F0100430
:1012E0000462846923F0A00324F4704444EA0232C7
:1012F00043EA01118261016210BD01680C3151E8BD
:10130000002F22F4907241E80023002BF5D10168F0
:10131000143151E8002F22F0010241E80023002B94
:10132000F5D1016B012909D101680C3151E8002F79
:1013300022F0100241E80023002BF5D1202180F893
:10134000421000210163704770B5044600680169CE
:10135000E26821F44051114301612169A06808430A
:10136000616908432168CA6841F20C639A430243E9
:10137000CA6020684169A26921F44071114341614A
:101380001E492068884202D1FFF7FAF901E0FFF711
:10139000E7F900EBC00101EB0012606864218000F6
:1013A000B2FBF0F3B3FBF1F36FF018067343B2FB3B
:1013B000F0F5B2FBF0F605EB8305322303EB0515E0
:1013C000B5FBF1F5B6FBF1F605F0F00505EB0615FA
:1013D000B2FBF0F6B2FBF0F0B0FBF1F06FF01802E8
:1013E000504306EB800003EB0010B0FBF1F02168E6
:1013F00000F00F002844886070BD000000380140F4
:101400002DE9F843984617460D460446089E24E009
:10141000701C22D0FFF770F8A0EB0800B0421AD879
:10142000CEB12068C168490717D5802D15D0402D51
:1014300013D00168C94309070FD40168002540682B
:1014400000902046FFF759FF0820606484F8405060
:101450000120BDE8F8830320FBE72068006835EA37
:10146000000004D00020B842D2D00020F1E70120D3
:10147000F9E7000010B5084C2068C068800601D567
:1014800000F0D6F82068C068000603D5BDE810401B
:1014900000F0D0B810BD000064000020FEE709078E
:1014A000090E002804DB00F1E02080F800147047EA
:1014B00000F00F0000F1E02080F8141D70470000DC
:1014C0000D4801680A6A41F211131A4207D10A6AEB
:1014D0009B101A4203D10A6822F001020A600268D6
:1014E000002151620168CA6822F00102CA600068E6
:1014F0006FF00101016170471C000020FFF7E0BFA1
:1015000009486FF00101026811610168CA6842F080
:101510000102CA600268002151620068016841F05E
:1015200001010160704700001C000020FFF7E8BFC8
:1015300003480068C16841F02001C16070470000A5
:10154000640000200278084952B1012A07D140788E
:10155000401EF72803D2022008700120087170474E
:10156000002008707047000010000020FEF7D2FF36
:10157000FFF70AFEFFF79CFDFFF7E4FDFFF7AEFD66
:10158000FFF7D6FFFFF7DEFF40F6B83400F056F85D
:101590002046FEF7A3FEF9E704490A780AB10020C5
:1015A0007047487001200870704700001800002044
:1015B000012301461A460148FFF7D0BC6400002011
:1015C00038B5134CE078002812D1684600F02EF8A8
:1015D000A078104968B101280AD1E088FF2807D80F
:1015E0009DF800200A54401CA4F80600FFF79EFF57
:1015F00038BD0020E0809DF8000022789042F7D1AD
:10160000002AF5D108700120E080A070EEE700000C
:1016100010000020AC00002001B501231A466946E5
:101620000148FFF7F3FC08BD64000020FFF7C0BFCE
:10163000FFF7C6BF0120FFF7EFBF000070B50C4CED
:1016400001202070062060700020A070E07004204F
:10165000207157206071CA20A071F420E07100252C
:10166000605D00F019F86D1C082DF9DB70BD0000FD
:10167000AC010020064810B5807820B1012802D1C5
:101680000020FFF789FFBDE81040FFF737BF0000DB
:1016900010000020FFF7EEBFFFF7BEBF01020203FC
:1016A0000405060708090A0B0C0D0E0F10100000A8
:1016B0000000000000000102030406070809000002
:1016C0000000010203040000E816000800000020EA
:1016D0001C0000006C010008041700081C0000201A
:1016E000F40800008801000801000000100000005C
:1016F0000000000000127A0001010000000000005C
:0417000000000000E5
:0400000508000131BD
:00000001FF
